{
  "_format": "hh-sol-artifact-1",
  "contractName": "Vote",
  "sourceName": "contracts/Vote.sol",
  "abi": [
    {
      "inputs": [],
      "stateMutability": "nonpayable",
      "type": "constructor"
    },
    {
      "inputs": [],
      "name": "GetOptions",
      "outputs": [
        {
          "components": [
            {
              "internalType": "uint256",
              "name": "id",
              "type": "uint256"
            },
            {
              "internalType": "uint256",
              "name": "SubjectId",
              "type": "uint256"
            },
            {
              "internalType": "string",
              "name": "name",
              "type": "string"
            },
            {
              "internalType": "string",
              "name": "description",
              "type": "string"
            },
            {
              "internalType": "uint256",
              "name": "votes",
              "type": "uint256"
            }
          ],
          "internalType": "struct Vote.Option[]",
          "name": "",
          "type": "tuple[]"
        }
      ],
      "stateMutability": "view",
      "type": "function"
    },
    {
      "inputs": [],
      "name": "GetSubjects",
      "outputs": [
        {
          "components": [
            {
              "internalType": "uint256",
              "name": "id",
              "type": "uint256"
            },
            {
              "internalType": "string",
              "name": "name",
              "type": "string"
            },
            {
              "internalType": "string",
              "name": "description",
              "type": "string"
            }
          ],
          "internalType": "struct Vote.Subject[]",
          "name": "",
          "type": "tuple[]"
        }
      ],
      "stateMutability": "view",
      "type": "function"
    },
    {
      "inputs": [],
      "name": "GetVotes",
      "outputs": [
        {
          "components": [
            {
              "internalType": "uint256",
              "name": "id",
              "type": "uint256"
            },
            {
              "internalType": "uint256",
              "name": "Option",
              "type": "uint256"
            },
            {
              "internalType": "address",
              "name": "Voter",
              "type": "address"
            }
          ],
          "internalType": "struct Vote.UserVote[]",
          "name": "",
          "type": "tuple[]"
        }
      ],
      "stateMutability": "view",
      "type": "function"
    },
    {
      "inputs": [
        {
          "internalType": "string",
          "name": "_name",
          "type": "string"
        },
        {
          "internalType": "string",
          "name": "_description",
          "type": "string"
        },
        {
          "internalType": "uint256",
          "name": "_subjectId",
          "type": "uint256"
        }
      ],
      "name": "createOption",
      "outputs": [],
      "stateMutability": "nonpayable",
      "type": "function"
    },
    {
      "inputs": [
        {
          "internalType": "string",
          "name": "_name",
          "type": "string"
        },
        {
          "internalType": "string",
          "name": "_description",
          "type": "string"
        }
      ],
      "name": "createSubject",
      "outputs": [],
      "stateMutability": "nonpayable",
      "type": "function"
    },
    {
      "inputs": [
        {
          "internalType": "uint256",
          "name": "",
          "type": "uint256"
        }
      ],
      "name": "options",
      "outputs": [
        {
          "internalType": "uint256",
          "name": "id",
          "type": "uint256"
        },
        {
          "internalType": "uint256",
          "name": "SubjectId",
          "type": "uint256"
        },
        {
          "internalType": "string",
          "name": "name",
          "type": "string"
        },
        {
          "internalType": "string",
          "name": "description",
          "type": "string"
        },
        {
          "internalType": "uint256",
          "name": "votes",
          "type": "uint256"
        }
      ],
      "stateMutability": "view",
      "type": "function"
    },
    {
      "inputs": [
        {
          "internalType": "uint256",
          "name": "",
          "type": "uint256"
        }
      ],
      "name": "subjects",
      "outputs": [
        {
          "internalType": "uint256",
          "name": "id",
          "type": "uint256"
        },
        {
          "internalType": "string",
          "name": "name",
          "type": "string"
        },
        {
          "internalType": "string",
          "name": "description",
          "type": "string"
        }
      ],
      "stateMutability": "view",
      "type": "function"
    },
    {
      "inputs": [
        {
          "internalType": "uint256",
          "name": "_optionId",
          "type": "uint256"
        }
      ],
      "name": "userVote",
      "outputs": [],
      "stateMutability": "nonpayable",
      "type": "function"
    },
    {
      "inputs": [
        {
          "internalType": "uint256",
          "name": "",
          "type": "uint256"
        }
      ],
      "name": "votes",
      "outputs": [
        {
          "internalType": "uint256",
          "name": "id",
          "type": "uint256"
        },
        {
          "internalType": "uint256",
          "name": "Option",
          "type": "uint256"
        },
        {
          "internalType": "address",
          "name": "Voter",
          "type": "address"
        }
      ],
      "stateMutability": "view",
      "type": "function"
    }
  ],
  "bytecode": "0x6080604052348015600f57600080fd5b506000600381905550600060048190555060006005819055506120a7806100376000396000f3fe608060405234801561001057600080fd5b50600436106100935760003560e01c80635df81330116100665780635df813301461013857806378569de61461016a5780639fc699cf14610186578063be5e28f0146101a4578063f13447f9146101c057610093565b806312e2dd93146100985780632c7424af146100b4578063409e2205146100e6578063506e74f51461011a575b600080fd5b6100b260048036038101906100ad9190611161565b6101de565b005b6100ce60048036038101906100c99190611161565b6104c3565b6040516100dd9392919061122d565b60405180910390f35b61010060048036038101906100fb9190611161565b61060d565b604051610111959493929190611272565b60405180910390f35b610122610763565b60405161012f9190611414565b60405180910390f35b610152600480360381019061014d9190611161565b61082c565b60405161016193929190611445565b60405180910390f35b610184600480360381019061017f91906114e1565b610886565b005b61018e610a8b565b60405161019b91906116eb565b60405180910390f35b6101be60048036038101906101b9919061170d565b610c2c565b005b6101c8610f0d565b6040516101d591906118bb565b60405180910390f35b6004548111610222576040517f08c379a000000000000000000000000000000000000000000000000000000000815260040161021990611929565b60405180910390fd5b60005b60028054905081101561038b576002818154811061024657610245611949565b5b9060005260206000209060030201600101546040516020016102689190611999565b604051602081830303815290604052805190602001208260405160200161028f9190611999565b604051602081830303815290604052805190602001200361037e57336040516020016102bb91906119fc565b60405160208183030381529060405280519060200120600282815481106102e5576102e4611949565b5b906000526020600020906003020160020160009054906101000a900473ffffffffffffffffffffffffffffffffffffffff1660405160200161032791906119fc565b604051602081830303815290604052805190602001200361037d576040517f08c379a000000000000000000000000000000000000000000000000000000000815260040161037490611a63565b60405180910390fd5b5b8080600101915050610225565b5060018082815481106103a1576103a0611949565b5b906000526020600020906005020160040160008282546103c19190611ab2565b925050819055506103d061109a565b6005548160000181815250508181602001818152505033816040019073ffffffffffffffffffffffffffffffffffffffff16908173ffffffffffffffffffffffffffffffffffffffff16815250506002819080600181540180825580915050600190039060005260206000209060030201600090919091909150600082015181600001556020820151816001015560408201518160020160006101000a81548173ffffffffffffffffffffffffffffffffffffffff021916908373ffffffffffffffffffffffffffffffffffffffff1602179055505050600560008154809291906104ba90611ae6565b91905055505050565b600081815481106104d357600080fd5b90600052602060002090600302016000915090508060000154908060010180546104fc90611b5d565b80601f016020809104026020016040519081016040528092919081815260200182805461052890611b5d565b80156105755780601f1061054a57610100808354040283529160200191610575565b820191906000526020600020905b81548152906001019060200180831161055857829003601f168201915b50505050509080600201805461058a90611b5d565b80601f01602080910402602001604051908101604052809291908181526020018280546105b690611b5d565b80156106035780601f106105d857610100808354040283529160200191610603565b820191906000526020600020905b8154815290600101906020018083116105e657829003601f168201915b5050505050905083565b6001818154811061061d57600080fd5b906000526020600020906005020160009150905080600001549080600101549080600201805461064c90611b5d565b80601f016020809104026020016040519081016040528092919081815260200182805461067890611b5d565b80156106c55780601f1061069a576101008083540402835291602001916106c5565b820191906000526020600020905b8154815290600101906020018083116106a857829003601f168201915b5050505050908060030180546106da90611b5d565b80601f016020809104026020016040519081016040528092919081815260200182805461070690611b5d565b80156107535780601f1061072857610100808354040283529160200191610753565b820191906000526020600020905b81548152906001019060200180831161073657829003601f168201915b5050505050908060040154905085565b60606002805480602002602001604051908101604052809291908181526020016000905b82821015610823578382906000526020600020906003020160405180606001604052908160008201548152602001600182015481526020016002820160009054906101000a900473ffffffffffffffffffffffffffffffffffffffff1673ffffffffffffffffffffffffffffffffffffffff1673ffffffffffffffffffffffffffffffffffffffff168152505081526020019060010190610787565b50505050905090565b6002818154811061083c57600080fd5b90600052602060002090600302016000915090508060000154908060010154908060020160009054906101000a900473ffffffffffffffffffffffffffffffffffffffff16905083565b60005b6000805490508110156109575784846040516020016108a9929190611bcd565b60405160208183030381529060405280519060200120600082815481106108d3576108d2611949565b5b90600052602060002090600302016001016040516020016108f49190611c7e565b604051602081830303815290604052805190602001200361094a576040517f08c379a000000000000000000000000000000000000000000000000000000000815260040161094190611ce1565b60405180910390fd5b8080600101915050610889565b506109606110d1565b60035481600001818152505082828080601f016020809104026020016040519081016040528093929190818152602001838380828437600081840152601f19601f82011690508083019250505050505050816040018190525084848080601f016020809104026020016040519081016040528093929190818152602001838380828437600081840152601f19601f8201169050808301925050505050505081602001819052506000819080600181540180825580915050600190039060005260206000209060030201600090919091909150600082015181600001556020820151816001019081610a519190611ec7565b506040820151816002019081610a679190611ec7565b505050600160036000828254610a7d9190611ab2565b925050819055505050505050565b60606001805480602002602001604051908101604052809291908181526020016000905b82821015610c2357838290600052602060002090600502016040518060a00160405290816000820154815260200160018201548152602001600282018054610af690611b5d565b80601f0160208091040260200160405190810160405280929190818152602001828054610b2290611b5d565b8015610b6f5780601f10610b4457610100808354040283529160200191610b6f565b820191906000526020600020905b815481529060010190602001808311610b5257829003601f168201915b50505050508152602001600382018054610b8890611b5d565b80601f0160208091040260200160405190810160405280929190818152602001828054610bb490611b5d565b8015610c015780601f10610bd657610100808354040283529160200191610c01565b820191906000526020600020905b815481529060010190602001808311610be457829003601f168201915b5050505050815260200160048201548152505081526020019060010190610aaf565b50505050905090565b6003548111610c70576040517f08c379a0000000000000000000000000000000000000000000000000000000008152600401610c6790611fe5565b60405180910390fd5b60005b600080549050811015610dba578585604051602001610c93929190611bcd565b6040516020818303038152906040528051906020012060018281548110610cbd57610cbc611949565b5b9060005260206000209060050201600201604051602001610cde9190611c7e565b6040516020818303038152906040528051906020012003610dad5781604051602001610d0a9190611999565b6040516020818303038152906040528051906020012060018281548110610d3457610d33611949565b5b906000526020600020906005020160010154604051602001610d569190611999565b6040516020818303038152906040528051906020012003610dac576040517f08c379a0000000000000000000000000000000000000000000000000000000008152600401610da390612051565b60405180910390fd5b5b8080600101915050610c73565b50610dc36110f2565b60045481600001818152505083838080601f016020809104026020016040519081016040528093929190818152602001838380828437600081840152601f19601f82011690508083019250505050505050816060018190525085858080601f016020809104026020016040519081016040528093929190818152602001838380828437600081840152601f19601f82011690508083019250505050505050816040018190525081816020018181525050600181908060018154018082558091505060019003906000526020600020906005020160009091909190915060008201518160000155602082015181600101556040820151816002019081610ec89190611ec7565b506060820151816003019081610ede9190611ec7565b50608082015181600401555050600160046000828254610efe9190611ab2565b92505081905550505050505050565b60606000805480602002602001604051908101604052809291908181526020016000905b82821015611091578382906000526020600020906003020160405180606001604052908160008201548152602001600182018054610f6e90611b5d565b80601f0160208091040260200160405190810160405280929190818152602001828054610f9a90611b5d565b8015610fe75780601f10610fbc57610100808354040283529160200191610fe7565b820191906000526020600020905b815481529060010190602001808311610fca57829003601f168201915b5050505050815260200160028201805461100090611b5d565b80601f016020809104026020016040519081016040528092919081815260200182805461102c90611b5d565b80156110795780601f1061104e57610100808354040283529160200191611079565b820191906000526020600020905b81548152906001019060200180831161105c57829003601f168201915b50505050508152505081526020019060010190610f31565b50505050905090565b60405180606001604052806000815260200160008152602001600073ffffffffffffffffffffffffffffffffffffffff1681525090565b60405180606001604052806000815260200160608152602001606081525090565b6040518060a0016040528060008152602001600081526020016060815260200160608152602001600081525090565b600080fd5b600080fd5b6000819050919050565b61113e8161112b565b811461114957600080fd5b50565b60008135905061115b81611135565b92915050565b60006020828403121561117757611176611121565b5b60006111858482850161114c565b91505092915050565b6111978161112b565b82525050565b600081519050919050565b600082825260208201905092915050565b60005b838110156111d75780820151818401526020810190506111bc565b60008484015250505050565b6000601f19601f8301169050919050565b60006111ff8261119d565b61120981856111a8565b93506112198185602086016111b9565b611222816111e3565b840191505092915050565b6000606082019050611242600083018661118e565b818103602083015261125481856111f4565b9050818103604083015261126881846111f4565b9050949350505050565b600060a082019050611287600083018861118e565b611294602083018761118e565b81810360408301526112a681866111f4565b905081810360608301526112ba81856111f4565b90506112c9608083018461118e565b9695505050505050565b600081519050919050565b600082825260208201905092915050565b6000819050602082019050919050565b6113088161112b565b82525050565b600073ffffffffffffffffffffffffffffffffffffffff82169050919050565b60006113398261130e565b9050919050565b6113498161132e565b82525050565b60608201600082015161136560008501826112ff565b50602082015161137860208501826112ff565b50604082015161138b6040850182611340565b50505050565b600061139d838361134f565b60608301905092915050565b6000602082019050919050565b60006113c1826112d3565b6113cb81856112de565b93506113d6836112ef565b8060005b838110156114075781516113ee8882611391565b97506113f9836113a9565b9250506001810190506113da565b5085935050505092915050565b6000602082019050818103600083015261142e81846113b6565b905092915050565b61143f8161132e565b82525050565b600060608201905061145a600083018661118e565b611467602083018561118e565b6114746040830184611436565b949350505050565b600080fd5b600080fd5b600080fd5b60008083601f8401126114a1576114a061147c565b5b8235905067ffffffffffffffff8111156114be576114bd611481565b5b6020830191508360018202830111156114da576114d9611486565b5b9250929050565b600080600080604085870312156114fb576114fa611121565b5b600085013567ffffffffffffffff81111561151957611518611126565b5b6115258782880161148b565b9450945050602085013567ffffffffffffffff81111561154857611547611126565b5b6115548782880161148b565b925092505092959194509250565b600081519050919050565b600082825260208201905092915050565b6000819050602082019050919050565b600082825260208201905092915050565b60006115aa8261119d565b6115b4818561158e565b93506115c48185602086016111b9565b6115cd816111e3565b840191505092915050565b600060a0830160008301516115f060008601826112ff565b50602083015161160360208601826112ff565b506040830151848203604086015261161b828261159f565b91505060608301518482036060860152611635828261159f565b915050608083015161164a60808601826112ff565b508091505092915050565b600061166183836115d8565b905092915050565b6000602082019050919050565b600061168182611562565b61168b818561156d565b93508360208202850161169d8561157e565b8060005b858110156116d957848403895281516116ba8582611655565b94506116c583611669565b925060208a019950506001810190506116a1565b50829750879550505050505092915050565b600060208201905081810360008301526117058184611676565b905092915050565b60008060008060006060868803121561172957611728611121565b5b600086013567ffffffffffffffff81111561174757611746611126565b5b6117538882890161148b565b9550955050602086013567ffffffffffffffff81111561177657611775611126565b5b6117828882890161148b565b935093505060406117958882890161114c565b9150509295509295909350565b600081519050919050565b600082825260208201905092915050565b6000819050602082019050919050565b60006060830160008301516117e660008601826112ff565b50602083015184820360208601526117fe828261159f565b91505060408301518482036040860152611818828261159f565b9150508091505092915050565b600061183183836117ce565b905092915050565b6000602082019050919050565b6000611851826117a2565b61185b81856117ad565b93508360208202850161186d856117be565b8060005b858110156118a9578484038952815161188a8582611825565b945061189583611839565b925060208a01995050600181019050611871565b50829750879550505050505092915050565b600060208201905081810360008301526118d58184611846565b905092915050565b7f4f7074696f6e20646f206e6f7420657869737400000000000000000000000000600082015250565b60006119136013836111a8565b915061191e826118dd565b602082019050919050565b6000602082019050818103600083015261194281611906565b9050919050565b7f4e487b7100000000000000000000000000000000000000000000000000000000600052603260045260246000fd5b6000819050919050565b61199361198e8261112b565b611978565b82525050565b60006119a58284611982565b60208201915081905092915050565b60008160601b9050919050565b60006119cc826119b4565b9050919050565b60006119de826119c1565b9050919050565b6119f66119f18261132e565b6119d3565b82525050565b6000611a0882846119e5565b60148201915081905092915050565b7f596f7520616c726561647920766f746564210000000000000000000000000000600082015250565b6000611a4d6012836111a8565b9150611a5882611a17565b602082019050919050565b60006020820190508181036000830152611a7c81611a40565b9050919050565b7f4e487b7100000000000000000000000000000000000000000000000000000000600052601160045260246000fd5b6000611abd8261112b565b9150611ac88361112b565b9250828201905080821115611ae057611adf611a83565b5b92915050565b6000611af18261112b565b91507fffffffffffffffffffffffffffffffffffffffffffffffffffffffffffffffff8203611b2357611b22611a83565b5b600182019050919050565b7f4e487b7100000000000000000000000000000000000000000000000000000000600052602260045260246000fd5b60006002820490506001821680611b7557607f821691505b602082108103611b8857611b87611b2e565b5b50919050565b600081905092915050565b82818337600083830152505050565b6000611bb48385611b8e565b9350611bc1838584611b99565b82840190509392505050565b6000611bda828486611ba8565b91508190509392505050565b60008190508160005260206000209050919050565b60008154611c0881611b5d565b611c128186611b8e565b94506001821660008114611c2d5760018114611c4257611c75565b60ff1983168652811515820286019350611c75565b611c4b85611be6565b60005b83811015611c6d57815481890152600182019150602081019050611c4e565b838801955050505b50505092915050565b6000611c8a8284611bfb565b915081905092915050565b7f537562626a65637420616c647265616479206578697374210000000000000000600082015250565b6000611ccb6018836111a8565b9150611cd682611c95565b602082019050919050565b60006020820190508181036000830152611cfa81611cbe565b9050919050565b7f4e487b7100000000000000000000000000000000000000000000000000000000600052604160045260246000fd5b60006020601f8301049050919050565b600082821b905092915050565b600060088302611d7d7fffffffffffffffffffffffffffffffffffffffffffffffffffffffffffffffff82611d40565b611d878683611d40565b95508019841693508086168417925050509392505050565b6000819050919050565b6000611dc4611dbf611dba8461112b565b611d9f565b61112b565b9050919050565b6000819050919050565b611dde83611da9565b611df2611dea82611dcb565b848454611d4d565b825550505050565b600090565b611e07611dfa565b611e12818484611dd5565b505050565b5b81811015611e3657611e2b600082611dff565b600181019050611e18565b5050565b601f821115611e7b57611e4c81611be6565b611e5584611d30565b81016020851015611e64578190505b611e78611e7085611d30565b830182611e17565b50505b505050565b600082821c905092915050565b6000611e9e60001984600802611e80565b1980831691505092915050565b6000611eb78383611e8d565b9150826002028217905092915050565b611ed08261119d565b67ffffffffffffffff811115611ee957611ee8611d01565b5b611ef38254611b5d565b611efe828285611e3a565b600060209050601f831160018114611f315760008415611f1f578287015190505b611f298582611eab565b865550611f91565b601f198416611f3f86611be6565b60005b82811015611f6757848901518255600182019150602085019450602081019050611f42565b86831015611f845784890151611f80601f891682611e8d565b8355505b6001600288020188555050505b505050505050565b7f5375626a65637420646f206e6f74206578697374210000000000000000000000600082015250565b6000611fcf6015836111a8565b9150611fda82611f99565b602082019050919050565b60006020820190508181036000830152611ffe81611fc2565b9050919050565b7f4f7074696f6e20616c7265616479206578697374000000000000000000000000600082015250565b600061203b6014836111a8565b915061204682612005565b602082019050919050565b6000602082019050818103600083015261206a8161202e565b905091905056fea2646970667358221220052a03f924a712e8d668470d24b47c2dbd6616a3847990ee71081707a9c7bece64736f6c634300081a0033",
  "linkReferences": {},
  "deployedLinkReferences": {}
}