{
  "_format": "hh-sol-artifact-1",
  "contractName": "Vote",
  "sourceName": "contracts/Vote.sol",
  "abi": [
    {
      "inputs": [],
      "stateMutability": "nonpayable",
      "type": "constructor"
    },
    {
      "anonymous": false,
      "inputs": [
        {
          "indexed": false,
          "internalType": "uint256",
          "name": "id",
          "type": "uint256"
        },
        {
          "indexed": false,
          "internalType": "string",
          "name": "name",
          "type": "string"
        },
        {
          "indexed": false,
          "internalType": "string",
          "name": "description",
          "type": "string"
        },
        {
          "indexed": false,
          "internalType": "uint256",
          "name": "subjectId",
          "type": "uint256"
        }
      ],
      "name": "NewOption",
      "type": "event"
    },
    {
      "anonymous": false,
      "inputs": [
        {
          "indexed": false,
          "internalType": "uint256",
          "name": "id",
          "type": "uint256"
        },
        {
          "indexed": false,
          "internalType": "string",
          "name": "name",
          "type": "string"
        },
        {
          "indexed": false,
          "internalType": "string",
          "name": "desciption",
          "type": "string"
        }
      ],
      "name": "NewSubject",
      "type": "event"
    },
    {
      "anonymous": false,
      "inputs": [
        {
          "indexed": false,
          "internalType": "uint256",
          "name": "id",
          "type": "uint256"
        },
        {
          "indexed": false,
          "internalType": "uint256",
          "name": "optionId",
          "type": "uint256"
        }
      ],
      "name": "NewUserVote",
      "type": "event"
    },
    {
      "inputs": [],
      "name": "GetLastOptionId",
      "outputs": [
        {
          "internalType": "uint256",
          "name": "",
          "type": "uint256"
        }
      ],
      "stateMutability": "view",
      "type": "function"
    },
    {
      "inputs": [],
      "name": "GetLastSubjectId",
      "outputs": [
        {
          "internalType": "uint256",
          "name": "",
          "type": "uint256"
        }
      ],
      "stateMutability": "view",
      "type": "function"
    },
    {
      "inputs": [
        {
          "internalType": "uint256",
          "name": "_subjectId",
          "type": "uint256"
        }
      ],
      "name": "GetOptionBySubjectID",
      "outputs": [
        {
          "components": [
            {
              "internalType": "uint256",
              "name": "id",
              "type": "uint256"
            },
            {
              "internalType": "uint256",
              "name": "subjectId",
              "type": "uint256"
            },
            {
              "internalType": "string",
              "name": "name",
              "type": "string"
            },
            {
              "internalType": "string",
              "name": "description",
              "type": "string"
            },
            {
              "internalType": "uint256",
              "name": "votes",
              "type": "uint256"
            }
          ],
          "internalType": "struct Vote.Option[]",
          "name": "",
          "type": "tuple[]"
        }
      ],
      "stateMutability": "view",
      "type": "function"
    },
    {
      "inputs": [],
      "name": "GetOptions",
      "outputs": [
        {
          "components": [
            {
              "internalType": "uint256",
              "name": "id",
              "type": "uint256"
            },
            {
              "internalType": "uint256",
              "name": "subjectId",
              "type": "uint256"
            },
            {
              "internalType": "string",
              "name": "name",
              "type": "string"
            },
            {
              "internalType": "string",
              "name": "description",
              "type": "string"
            },
            {
              "internalType": "uint256",
              "name": "votes",
              "type": "uint256"
            }
          ],
          "internalType": "struct Vote.Option[]",
          "name": "",
          "type": "tuple[]"
        }
      ],
      "stateMutability": "view",
      "type": "function"
    },
    {
      "inputs": [],
      "name": "GetSubjects",
      "outputs": [
        {
          "components": [
            {
              "internalType": "uint256",
              "name": "id",
              "type": "uint256"
            },
            {
              "internalType": "string",
              "name": "name",
              "type": "string"
            },
            {
              "internalType": "string",
              "name": "description",
              "type": "string"
            }
          ],
          "internalType": "struct Vote.Subject[]",
          "name": "",
          "type": "tuple[]"
        }
      ],
      "stateMutability": "view",
      "type": "function"
    },
    {
      "inputs": [],
      "name": "GetVotes",
      "outputs": [
        {
          "components": [
            {
              "internalType": "uint256",
              "name": "id",
              "type": "uint256"
            },
            {
              "internalType": "uint256",
              "name": "Option",
              "type": "uint256"
            },
            {
              "internalType": "uint256",
              "name": "Subject",
              "type": "uint256"
            },
            {
              "internalType": "address",
              "name": "Voter",
              "type": "address"
            }
          ],
          "internalType": "struct Vote.UserVote[]",
          "name": "",
          "type": "tuple[]"
        }
      ],
      "stateMutability": "view",
      "type": "function"
    },
    {
      "inputs": [
        {
          "internalType": "string",
          "name": "_name",
          "type": "string"
        },
        {
          "internalType": "string",
          "name": "_description",
          "type": "string"
        },
        {
          "internalType": "uint256",
          "name": "_subjectId",
          "type": "uint256"
        }
      ],
      "name": "createOption",
      "outputs": [],
      "stateMutability": "nonpayable",
      "type": "function"
    },
    {
      "inputs": [
        {
          "internalType": "string",
          "name": "_name",
          "type": "string"
        },
        {
          "internalType": "string",
          "name": "_description",
          "type": "string"
        }
      ],
      "name": "createSubject",
      "outputs": [],
      "stateMutability": "nonpayable",
      "type": "function"
    },
    {
      "inputs": [
        {
          "internalType": "uint256",
          "name": "id",
          "type": "uint256"
        }
      ],
      "name": "getSubjectIdByOptionId",
      "outputs": [
        {
          "internalType": "uint256",
          "name": "",
          "type": "uint256"
        }
      ],
      "stateMutability": "view",
      "type": "function"
    },
    {
      "inputs": [],
      "name": "optionId",
      "outputs": [
        {
          "internalType": "uint256",
          "name": "",
          "type": "uint256"
        }
      ],
      "stateMutability": "view",
      "type": "function"
    },
    {
      "inputs": [
        {
          "internalType": "uint256",
          "name": "",
          "type": "uint256"
        }
      ],
      "name": "options",
      "outputs": [
        {
          "internalType": "uint256",
          "name": "id",
          "type": "uint256"
        },
        {
          "internalType": "uint256",
          "name": "subjectId",
          "type": "uint256"
        },
        {
          "internalType": "string",
          "name": "name",
          "type": "string"
        },
        {
          "internalType": "string",
          "name": "description",
          "type": "string"
        },
        {
          "internalType": "uint256",
          "name": "votes",
          "type": "uint256"
        }
      ],
      "stateMutability": "view",
      "type": "function"
    },
    {
      "inputs": [],
      "name": "subjectId",
      "outputs": [
        {
          "internalType": "uint256",
          "name": "",
          "type": "uint256"
        }
      ],
      "stateMutability": "view",
      "type": "function"
    },
    {
      "inputs": [
        {
          "internalType": "uint256",
          "name": "",
          "type": "uint256"
        }
      ],
      "name": "subjects",
      "outputs": [
        {
          "internalType": "uint256",
          "name": "id",
          "type": "uint256"
        },
        {
          "internalType": "string",
          "name": "name",
          "type": "string"
        },
        {
          "internalType": "string",
          "name": "description",
          "type": "string"
        }
      ],
      "stateMutability": "view",
      "type": "function"
    },
    {
      "inputs": [
        {
          "internalType": "uint256",
          "name": "_optionId",
          "type": "uint256"
        }
      ],
      "name": "userVote",
      "outputs": [],
      "stateMutability": "nonpayable",
      "type": "function"
    },
    {
      "inputs": [
        {
          "internalType": "uint256",
          "name": "",
          "type": "uint256"
        }
      ],
      "name": "votes",
      "outputs": [
        {
          "internalType": "uint256",
          "name": "id",
          "type": "uint256"
        },
        {
          "internalType": "uint256",
          "name": "Option",
          "type": "uint256"
        },
        {
          "internalType": "uint256",
          "name": "Subject",
          "type": "uint256"
        },
        {
          "internalType": "address",
          "name": "Voter",
          "type": "address"
        }
      ],
      "stateMutability": "view",
      "type": "function"
    }
  ],
  "bytecode": "0x6080604052348015600f57600080fd5b5060006003819055506000600481905550600060058190555061277c806100376000396000f3fe608060405234801561001057600080fd5b50600436106100f55760003560e01c806370aa05b511610097578063be5e28f011610066578063be5e28f014610291578063e208eb96146102ad578063e9f40595146102cb578063f13447f9146102fb576100f5565b806370aa05b51461020957806378569de6146102395780639fc699cf14610255578063ad27179614610273576100f5565b80632c7424af116100d35780632c7424af14610152578063409e220514610184578063506e74f5146101b85780635df81330146101d6576100f5565b806312e2dd93146100fa57806324574d4d1461011657806327b66d1114610134575b600080fd5b610114600480360381019061010f9190611704565b610319565b005b61011e6106d6565b60405161012b9190611740565b60405180910390f35b61013c6106dc565b6040516101499190611740565b60405180910390f35b61016c60048036038101906101679190611704565b6106e6565b60405161017b939291906117eb565b60405180910390f35b61019e60048036038101906101999190611704565b610830565b6040516101af959493929190611830565b60405180910390f35b6101c0610986565b6040516101cd91906119e5565b60405180910390f35b6101f060048036038101906101eb9190611704565b610a59565b6040516102009493929190611a16565b60405180910390f35b610223600480360381019061021e9190611704565b610ab9565b6040516102309190611be4565b60405180910390f35b610253600480360381019061024e9190611c6b565b610d5f565b005b61025d610fa5565b60405161026a9190611be4565b60405180910390f35b61027b611146565b6040516102889190611740565b60405180910390f35b6102ab60048036038101906102a69190611cec565b61114c565b005b6102b5611470565b6040516102c29190611740565b60405180910390f35b6102e560048036038101906102e09190611704565b61147a565b6040516102f29190611740565b60405180910390f35b6103036114a9565b6040516103109190611e9a565b60405180910390f35b600454811061035d576040517f08c379a000000000000000000000000000000000000000000000000000000000815260040161035490611f08565b60405180910390fd5b60005b600280549050811015610547576002818154811061038157610380611f28565b5b9060005260206000209060040201600101546040516020016103a39190611f78565b60405160208183030381529060405280519060200120826040516020016103ca9190611f78565b604051602081830303815290604052805190602001200361053a57336040516020016103f69190611fdb565b60405160208183030381529060405280519060200120600282815481106104205761041f611f28565b5b906000526020600020906004020160030160009054906101000a900473ffffffffffffffffffffffffffffffffffffffff166040516020016104629190611fdb565b6040516020818303038152906040528051906020012003610539576002818154811061049157610490611f28565b5b9060005260206000209060040201600201546040516020016104b39190611f78565b604051602081830303815290604052805190602001206104d28361147a565b6040516020016104e29190611f78565b6040516020818303038152906040528051906020012003610538576040517f08c379a000000000000000000000000000000000000000000000000000000000815260040161052f90612042565b60405180910390fd5b5b5b8080600101915050610360565b50600180828154811061055d5761055c611f28565b5b9060005260206000209060050201600401600082825461057d9190612091565b9250508190555061058c611636565b6005548160000181815250508181602001818152505033816060019073ffffffffffffffffffffffffffffffffffffffff16908173ffffffffffffffffffffffffffffffffffffffff16815250506105e38261147a565b816040018181525050600281908060018154018082558091505060019003906000526020600020906004020160009091909190915060008201518160000155602082015181600101556040820151816002015560608201518160030160006101000a81548173ffffffffffffffffffffffffffffffffffffffff021916908373ffffffffffffffffffffffffffffffffffffffff16021790555050507fb0dcb51f808bf42019f3a5b82a254c85213766ad1f3a2c57ff5646619da47186600554836040516106b29291906120c5565b60405180910390a1600560008154809291906106cd906120ee565b91905055505050565b60035481565b6000600454905090565b600081815481106106f657600080fd5b906000526020600020906003020160009150905080600001549080600101805461071f90612165565b80601f016020809104026020016040519081016040528092919081815260200182805461074b90612165565b80156107985780601f1061076d57610100808354040283529160200191610798565b820191906000526020600020905b81548152906001019060200180831161077b57829003601f168201915b5050505050908060020180546107ad90612165565b80601f01602080910402602001604051908101604052809291908181526020018280546107d990612165565b80156108265780601f106107fb57610100808354040283529160200191610826565b820191906000526020600020905b81548152906001019060200180831161080957829003601f168201915b5050505050905083565b6001818154811061084057600080fd5b906000526020600020906005020160009150905080600001549080600101549080600201805461086f90612165565b80601f016020809104026020016040519081016040528092919081815260200182805461089b90612165565b80156108e85780601f106108bd576101008083540402835291602001916108e8565b820191906000526020600020905b8154815290600101906020018083116108cb57829003601f168201915b5050505050908060030180546108fd90612165565b80601f016020809104026020016040519081016040528092919081815260200182805461092990612165565b80156109765780601f1061094b57610100808354040283529160200191610976565b820191906000526020600020905b81548152906001019060200180831161095957829003601f168201915b5050505050908060040154905085565b60606002805480602002602001604051908101604052809291908181526020016000905b82821015610a5057838290600052602060002090600402016040518060800160405290816000820154815260200160018201548152602001600282015481526020016003820160009054906101000a900473ffffffffffffffffffffffffffffffffffffffff1673ffffffffffffffffffffffffffffffffffffffff1673ffffffffffffffffffffffffffffffffffffffff1681525050815260200190600101906109aa565b50505050905090565b60028181548110610a6957600080fd5b90600052602060002090600402016000915090508060000154908060010154908060020154908060030160009054906101000a900473ffffffffffffffffffffffffffffffffffffffff16905084565b60606000805b600180549050811015610b14578360018281548110610ae157610ae0611f28565b5b90600052602060002090600502016001015403610b07578180610b03906120ee565b9250505b8080600101915050610abf565b5060008167ffffffffffffffff811115610b3157610b30612196565b5b604051908082528060200260200182016040528015610b6a57816020015b610b57611674565b815260200190600190039081610b4f5790505b5090506000805b600180549050811015610d53578560018281548110610b9357610b92611f28565b5b90600052602060002090600502016001015403610d465760018181548110610bbe57610bbd611f28565b5b90600052602060002090600502016040518060a00160405290816000820154815260200160018201548152602001600282018054610bfb90612165565b80601f0160208091040260200160405190810160405280929190818152602001828054610c2790612165565b8015610c745780601f10610c4957610100808354040283529160200191610c74565b820191906000526020600020905b815481529060010190602001808311610c5757829003601f168201915b50505050508152602001600382018054610c8d90612165565b80601f0160208091040260200160405190810160405280929190818152602001828054610cb990612165565b8015610d065780601f10610cdb57610100808354040283529160200191610d06565b820191906000526020600020905b815481529060010190602001808311610ce957829003601f168201915b50505050508152602001600482015481525050838381518110610d2c57610d2b611f28565b5b60200260200101819052508180610d42906120ee565b9250505b8080600101915050610b71565b50819350505050919050565b60005b600080549050811015610e30578484604051602001610d82929190612204565b6040516020818303038152906040528051906020012060008281548110610dac57610dab611f28565b5b9060005260206000209060030201600101604051602001610dcd91906122b5565b6040516020818303038152906040528051906020012003610e23576040517f08c379a0000000000000000000000000000000000000000000000000000000008152600401610e1a90612318565b60405180910390fd5b8080600101915050610d62565b50610e396116a3565b60035481600001818152505082828080601f016020809104026020016040519081016040528093929190818152602001838380828437600081840152601f19601f82011690508083019250505050505050816040018190525084848080601f016020809104026020016040519081016040528093929190818152602001838380828437600081840152601f19601f8201169050808301925050505050505081602001819052506000819080600181540180825580915050600190039060005260206000209060030201600090919091909150600082015181600001556020820151816001019081610f2a91906124cf565b506040820151816002019081610f4091906124cf565b5050507fcd655e77eb0a394f33c84533c03be2ef91a2c0f38a6e07138a48c600eb773cbb60035486868686604051610f7c9594939291906125ce565b60405180910390a1600160036000828254610f979190612091565b925050819055505050505050565b60606001805480602002602001604051908101604052809291908181526020016000905b8282101561113d57838290600052602060002090600502016040518060a0016040529081600082015481526020016001820154815260200160028201805461101090612165565b80601f016020809104026020016040519081016040528092919081815260200182805461103c90612165565b80156110895780601f1061105e57610100808354040283529160200191611089565b820191906000526020600020905b81548152906001019060200180831161106c57829003601f168201915b505050505081526020016003820180546110a290612165565b80601f01602080910402602001604051908101604052809291908181526020018280546110ce90612165565b801561111b5780601f106110f05761010080835404028352916020019161111b565b820191906000526020600020905b8154815290600101906020018083116110fe57829003601f168201915b5050505050815260200160048201548152505081526020019060010190610fc9565b50505050905090565b60045481565b6003548110611190576040517f08c379a000000000000000000000000000000000000000000000000000000000815260040161118790612663565b60405180910390fd5b60005b6001805490508110156112da5785856040516020016111b3929190612204565b60405160208183030381529060405280519060200120600182815481106111dd576111dc611f28565b5b90600052602060002090600502016002016040516020016111fe91906122b5565b60405160208183030381529060405280519060200120036112cd578160405160200161122a9190611f78565b604051602081830303815290604052805190602001206001828154811061125457611253611f28565b5b9060005260206000209060050201600101546040516020016112769190611f78565b60405160208183030381529060405280519060200120036112cc576040517f08c379a00000000000000000000000000000000000000000000000000000000081526004016112c3906126cf565b60405180910390fd5b5b8080600101915050611193565b506112e3611674565b60045481600001818152505083838080601f016020809104026020016040519081016040528093929190818152602001838380828437600081840152601f19601f82011690508083019250505050505050816060018190525085858080601f016020809104026020016040519081016040528093929190818152602001838380828437600081840152601f19601f820116905080830192505050505050508160400181905250818160200181815250506001819080600181540180825580915050600190039060005260206000209060050201600090919091909150600082015181600001556020820151816001015560408201518160020190816113e891906124cf565b5060608201518160030190816113fe91906124cf565b506080820151816004015550507f91cec2b1496be29247bcc4b332f07eaabbfa05d1ba15cc021e94fb7dc27694b16004548787878787604051611446969594939291906126ef565b60405180910390a16001600460008282546114619190612091565b92505081905550505050505050565b6000600354905090565b6000600182815481106114905761148f611f28565b5b9060005260206000209060050201600101549050919050565b60606000805480602002602001604051908101604052809291908181526020016000905b8282101561162d57838290600052602060002090600302016040518060600160405290816000820154815260200160018201805461150a90612165565b80601f016020809104026020016040519081016040528092919081815260200182805461153690612165565b80156115835780601f1061155857610100808354040283529160200191611583565b820191906000526020600020905b81548152906001019060200180831161156657829003601f168201915b5050505050815260200160028201805461159c90612165565b80601f01602080910402602001604051908101604052809291908181526020018280546115c890612165565b80156116155780601f106115ea57610100808354040283529160200191611615565b820191906000526020600020905b8154815290600101906020018083116115f857829003601f168201915b505050505081525050815260200190600101906114cd565b50505050905090565b6040518060800160405280600081526020016000815260200160008152602001600073ffffffffffffffffffffffffffffffffffffffff1681525090565b6040518060a0016040528060008152602001600081526020016060815260200160608152602001600081525090565b60405180606001604052806000815260200160608152602001606081525090565b600080fd5b600080fd5b6000819050919050565b6116e1816116ce565b81146116ec57600080fd5b50565b6000813590506116fe816116d8565b92915050565b60006020828403121561171a576117196116c4565b5b6000611728848285016116ef565b91505092915050565b61173a816116ce565b82525050565b60006020820190506117556000830184611731565b92915050565b600081519050919050565b600082825260208201905092915050565b60005b8381101561179557808201518184015260208101905061177a565b60008484015250505050565b6000601f19601f8301169050919050565b60006117bd8261175b565b6117c78185611766565b93506117d7818560208601611777565b6117e0816117a1565b840191505092915050565b60006060820190506118006000830186611731565b818103602083015261181281856117b2565b9050818103604083015261182681846117b2565b9050949350505050565b600060a0820190506118456000830188611731565b6118526020830187611731565b818103604083015261186481866117b2565b9050818103606083015261187881856117b2565b90506118876080830184611731565b9695505050505050565b600081519050919050565b600082825260208201905092915050565b6000819050602082019050919050565b6118c6816116ce565b82525050565b600073ffffffffffffffffffffffffffffffffffffffff82169050919050565b60006118f7826118cc565b9050919050565b611907816118ec565b82525050565b60808201600082015161192360008501826118bd565b50602082015161193660208501826118bd565b50604082015161194960408501826118bd565b50606082015161195c60608501826118fe565b50505050565b600061196e838361190d565b60808301905092915050565b6000602082019050919050565b600061199282611891565b61199c818561189c565b93506119a7836118ad565b8060005b838110156119d85781516119bf8882611962565b97506119ca8361197a565b9250506001810190506119ab565b5085935050505092915050565b600060208201905081810360008301526119ff8184611987565b905092915050565b611a10816118ec565b82525050565b6000608082019050611a2b6000830187611731565b611a386020830186611731565b611a456040830185611731565b611a526060830184611a07565b95945050505050565b600081519050919050565b600082825260208201905092915050565b6000819050602082019050919050565b600082825260208201905092915050565b6000611aa38261175b565b611aad8185611a87565b9350611abd818560208601611777565b611ac6816117a1565b840191505092915050565b600060a083016000830151611ae960008601826118bd565b506020830151611afc60208601826118bd565b5060408301518482036040860152611b148282611a98565b91505060608301518482036060860152611b2e8282611a98565b9150506080830151611b4360808601826118bd565b508091505092915050565b6000611b5a8383611ad1565b905092915050565b6000602082019050919050565b6000611b7a82611a5b565b611b848185611a66565b935083602082028501611b9685611a77565b8060005b85811015611bd25784840389528151611bb38582611b4e565b9450611bbe83611b62565b925060208a01995050600181019050611b9a565b50829750879550505050505092915050565b60006020820190508181036000830152611bfe8184611b6f565b905092915050565b600080fd5b600080fd5b600080fd5b60008083601f840112611c2b57611c2a611c06565b5b8235905067ffffffffffffffff811115611c4857611c47611c0b565b5b602083019150836001820283011115611c6457611c63611c10565b5b9250929050565b60008060008060408587031215611c8557611c846116c4565b5b600085013567ffffffffffffffff811115611ca357611ca26116c9565b5b611caf87828801611c15565b9450945050602085013567ffffffffffffffff811115611cd257611cd16116c9565b5b611cde87828801611c15565b925092505092959194509250565b600080600080600060608688031215611d0857611d076116c4565b5b600086013567ffffffffffffffff811115611d2657611d256116c9565b5b611d3288828901611c15565b9550955050602086013567ffffffffffffffff811115611d5557611d546116c9565b5b611d6188828901611c15565b93509350506040611d74888289016116ef565b9150509295509295909350565b600081519050919050565b600082825260208201905092915050565b6000819050602082019050919050565b6000606083016000830151611dc560008601826118bd565b5060208301518482036020860152611ddd8282611a98565b91505060408301518482036040860152611df78282611a98565b9150508091505092915050565b6000611e108383611dad565b905092915050565b6000602082019050919050565b6000611e3082611d81565b611e3a8185611d8c565b935083602082028501611e4c85611d9d565b8060005b85811015611e885784840389528151611e698582611e04565b9450611e7483611e18565b925060208a01995050600181019050611e50565b50829750879550505050505092915050565b60006020820190508181036000830152611eb48184611e25565b905092915050565b7f4f7074696f6e20646f206e6f7420657869737400000000000000000000000000600082015250565b6000611ef2601383611766565b9150611efd82611ebc565b602082019050919050565b60006020820190508181036000830152611f2181611ee5565b9050919050565b7f4e487b7100000000000000000000000000000000000000000000000000000000600052603260045260246000fd5b6000819050919050565b611f72611f6d826116ce565b611f57565b82525050565b6000611f848284611f61565b60208201915081905092915050565b60008160601b9050919050565b6000611fab82611f93565b9050919050565b6000611fbd82611fa0565b9050919050565b611fd5611fd0826118ec565b611fb2565b82525050565b6000611fe78284611fc4565b60148201915081905092915050565b7f596f7520616c726561647920766f746564210000000000000000000000000000600082015250565b600061202c601283611766565b915061203782611ff6565b602082019050919050565b6000602082019050818103600083015261205b8161201f565b9050919050565b7f4e487b7100000000000000000000000000000000000000000000000000000000600052601160045260246000fd5b600061209c826116ce565b91506120a7836116ce565b92508282019050808211156120bf576120be612062565b5b92915050565b60006040820190506120da6000830185611731565b6120e76020830184611731565b9392505050565b60006120f9826116ce565b91507fffffffffffffffffffffffffffffffffffffffffffffffffffffffffffffffff820361212b5761212a612062565b5b600182019050919050565b7f4e487b7100000000000000000000000000000000000000000000000000000000600052602260045260246000fd5b6000600282049050600182168061217d57607f821691505b6020821081036121905761218f612136565b5b50919050565b7f4e487b7100000000000000000000000000000000000000000000000000000000600052604160045260246000fd5b600081905092915050565b82818337600083830152505050565b60006121eb83856121c5565b93506121f88385846121d0565b82840190509392505050565b60006122118284866121df565b91508190509392505050565b60008190508160005260206000209050919050565b6000815461223f81612165565b61224981866121c5565b945060018216600081146122645760018114612279576122ac565b60ff19831686528115158202860193506122ac565b6122828561221d565b60005b838110156122a457815481890152600182019150602081019050612285565b838801955050505b50505092915050565b60006122c18284612232565b915081905092915050565b7f537562626a65637420616c646666726561647920657869737421000000000000600082015250565b6000612302601a83611766565b915061230d826122cc565b602082019050919050565b60006020820190508181036000830152612331816122f5565b9050919050565b60006020601f8301049050919050565b600082821b905092915050565b6000600883026123857fffffffffffffffffffffffffffffffffffffffffffffffffffffffffffffffff82612348565b61238f8683612348565b95508019841693508086168417925050509392505050565b6000819050919050565b60006123cc6123c76123c2846116ce565b6123a7565b6116ce565b9050919050565b6000819050919050565b6123e6836123b1565b6123fa6123f2826123d3565b848454612355565b825550505050565b600090565b61240f612402565b61241a8184846123dd565b505050565b5b8181101561243e57612433600082612407565b600181019050612420565b5050565b601f821115612483576124548161221d565b61245d84612338565b8101602085101561246c578190505b61248061247885612338565b83018261241f565b50505b505050565b600082821c905092915050565b60006124a660001984600802612488565b1980831691505092915050565b60006124bf8383612495565b9150826002028217905092915050565b6124d88261175b565b67ffffffffffffffff8111156124f1576124f0612196565b5b6124fb8254612165565b612506828285612442565b600060209050601f8311600181146125395760008415612527578287015190505b61253185826124b3565b865550612599565b601f1984166125478661221d565b60005b8281101561256f5784890151825560018201915060208501945060208101905061254a565b8683101561258c5784890151612588601f891682612495565b8355505b6001600288020188555050505b505050505050565b60006125ad8385611766565b93506125ba8385846121d0565b6125c3836117a1565b840190509392505050565b60006060820190506125e36000830188611731565b81810360208301526125f68186886125a1565b9050818103604083015261260b8184866125a1565b90509695505050505050565b7f5375626a65637420646f206e6f74206578697374210000000000000000000000600082015250565b600061264d601583611766565b915061265882612617565b602082019050919050565b6000602082019050818103600083015261267c81612640565b9050919050565b7f4f7074696f6e20616c7265616479206578697374000000000000000000000000600082015250565b60006126b9601483611766565b91506126c482612683565b602082019050919050565b600060208201905081810360008301526126e8816126ac565b9050919050565b60006080820190506127046000830189611731565b81810360208301526127178187896125a1565b9050818103604083015261272c8185876125a1565b905061273b6060830184611731565b97965050505050505056fea26469706673582212205eb60d5a7fd59db59b1c04f10b4813f3a99de2e9eed2d2ecee667796c4d84e7364736f6c634300081a0033",
  "linkReferences": {},
  "deployedLinkReferences": {}
}